:020000040000FA
:0400000026EF00F0F7
:06000800458209ED03F042
:100018004580E0CF36F09EAA14EF00F016EF00F00E
:1000280022EF00F0ABA21BEF00F01DEF00F020EF75
:1000380000F0AB9800F0AB881EEC05F036C0E0FF8E
:08004800459010000FEF05F0D8
:100600000070617573650A00476F210A00520A0085
:0106100000E9
:100612000600F6CF32F0F7CF33F0F8CF34F0F5CF53
:1006220035F0F2A217EF03F019EF03F038EF03F001
:100632008C04D8A41FEF03F021EF03F025EF03F0A1
:10064200000E8C6E27EF03F0010E8C6EF298080EEE
:100652002C6E060E2D6EF8EC03F0010E2C6E060EBB
:100662002D6EF8EC03F0F292F2885CEF03F0F0A04A
:100672003DEF03F03FEF03F05CEF03F08C04D8A4EE
:1006820045EF03F047EF03F04BEF03F0000E8C6EE3
:100692004DEF03F0010E8C6EF0960D0E2C6E060ED1
:1006A2002D6EF8EC03F0010E2C6E060E2D6EF8EC9A
:1006B20003F0F090F086270E2C6E100E2B6ED2EC0B
:1006C20004F035C0F5FF34C0F8FF33C0F7FF32C085
:1006D200F6FF45921100EAEC04F0B7EC04F077EC77
:1006E20004F0030E3D6E000E3E6EB3EC03F038C014
:1006F2003FF039C040F098EC04F0480E0318D8A43B
:1007020085EF03F087EF03F070EF03F0650E041836
:10071200D8A48EEF03F090EF03F070EF03F06C0EAD
:100722000518D8A497EF03F099EF03F070EF03F0E8
:100732006C0E0618D8A4A0EF03F0A2EF03F070EF3E
:1007420003F06F0E0718D8A4A9EF03F0ABEF03F084
:1007520070EF03F0FEEC04F077EC04F070EF03F0BE
:1007620026EF00F0000E3B6E000E3A6E9EAABCEF22
:1007720003F0BEEF03F0B7EF03F09E9AAECF3CF06A
:100782000D0E3C18D8B4C8EF03F0CAEF03F0D3EF54
:1007920003F00A0E3C18D8A4D1EF03F0D3EF03F014
:1007A200D8EF03F00D0E23EC04F0F3EF03F0170E75
:1007B2003A24D96E000E3B20DA6E3CC0DFFF3C507B
:1007C20023EC04F03A4A3B2A3BBEF1EF03F03B50E4
:1007D20009E1140E3A5CD8A0F1EF03F0F3EF03F055
:1007E200B7EF03F0170E386E000E396E1200000ECE
:1007F200316E000E306E0EEF04F030502C242E6E4F
:1008020031502D202F6E2EC0F6FF2FC0F7FF0800AB
:10081200F5504DEC04F0304A312A30502C242E6E23
:1008220031502D202F6E2EC0F6FF2FC0F7FF08008B
:10083200F5500009D8A420EF04F022EF04F0FEEFF7
:1008420003F01200376EACA229EF04F02BEF04F094
:1008520024EF04F00D0E3718D8B432EF04F034EF61
:1008620004F03DEF04F00A0E3718D8A43BEF04F071
:100872003DEF04F04AEF04F00D0EAD6EACA244EF72
:1008820004F046EF04F03FEF04F00A0EAD6E4CEFB9
:1008920004F037C0ADFF12002B6EACA253EF04F090
:1008A20055EF04F04EEF04F00D0E2B18D8B45CEFA8
:1008B20004F05EEF04F067EF04F00A0E2B18D8A4E0
:1008C20065EF04F067EF04F074EF04F00D0EAD6E07
:1008D200ACA26EEF04F070EF04F069EF04F00A0EC0
:1008E200AD6E76EF04F02BC0ADFF1200000E386E35
:1008F200000E376E170E3724D96E000E3820DA6ECE
:10090200000EDF6E374A382A38BE91EF04F03850B5
:1009120009E1140E375CD8A091EF04F093EF04F0D4
:100922007BEF04F0000E026E000E016E12003FC05B
:1009320041F040C042F03DC043F03EC044F041C0EF
:10094200D9FF42C0DAFF414A422A43C0E1FF44C014
:10095200E2FF434A442ADFCFE7FFE750D8A4B4EFCF
:1009620004F0B6EF04F0A0EF04F012009280000E43
:10097200956E000E8C6EC30EC216C280C198C19ACB
:10098200C150F00B0E09C16EF80EC016C050C70B55
:100992001009C06EC08E9D9C9E9CF29CF29EC282EB
:1009A2001200000E2F6E000E2E6EDAEF04F02E4AA9
:1009B2002F2A2B502E5C2F50800A2D6E2C50800A2D
:1009C2002D58D8A0E7EF04F0E9EF04F0D8EF04F0D7
:1009D2001200948C948ED38CD39AD388AC98B89608
:1009E200AC940C0EAF6EAB8E9E989E9AAC8AAB887E
:1009F2009D989F989D9A9F9A120077EC04F093809D
:100A02009382000E956E000E8C6EF28ED08EF2885E
:100A1200F086F18EF28C0CEF05F0120000EE01F080
:100A22002A0EEE6AE806FDE145904592000EF86E48
:100A3200060EF76E00016CEF03F09EAA23EF05F09D
:0C0A420025EF05F01EEF05F09E9A120053
:020000040020DA
:08000000FFFFFFFFFFFFFFFF00
:020000040030CA
:0E000000FF881F00FF8381FF0FC00FE00F403D
:00000001FF
